:020000040000FA
:020000003528A1
:100008007E1480312000911E24282100911E24286E
:1000180023009D1C18281D121908FB007B082000CE
:10002800B70023001D1624281908FB007B082000B0
:10003800B7000D303706031D2328FA152428FA16B1
:100048002000111F33282100111F3328200011130D
:1000580021001C08FB007B082000B6007A177E10E0
:1000680009003628FA012030840000308500183055
:10007800F6277E1020008F2D682AF3346910A039E6
:10008800683AA0324824202B692AE936673753108A
:10009800E434A032E821EE3065372036F420613AA6
:1000A800EB312810C329A9206410ED32AE378A0637
:1000B800A020693AE5365310C1216910A039653886
:1000C8006639F237E536203279316D10E132F5398B
:1000D80069396737741065347410ED34A0326531AE
:1000E800773AE5322037F632EE32733A74106134DB
:1000F800203AF2308D327305F032F230F430E432C7
:100108006210A03CA030EF31F036F230F334EE3715
:100118007410EB30EE34A033A0306F372D37653DC7
:100128006F396110EF36EE3A203AE6377410ED3445
:10013800AE3249102037683AF3346310F330AC32EA
:100148008A06F4346910A039A030201A6932E933DC
:10015800203A49282027E63734107610EC30E53A63
:10016800AE3954106934A039F132E13A653AA03910
:100178006F3A28105E1A291AB21EB61A6310ED37A4
:1001880069316137693AEE37AE390A05D406A037C6
:10019800E539203AF03A201DEF316E37E332203A44
:1001A800683AA032D32A6521A0326F36E933A031EC
:1001B800EE30EC30FA3CF2327410A037A030EF3158
:1001C800F036F43AF2322016F439F230203A683A2E
:1001D800A0327238E73761398D36220575387336A3
:1001E800F632E534A23B201775287336F632E5342B
:1001F800A03BE839F537643673106F34A03B5511CE
:10020800C229E5324110222C69102037683AA03201
:10021800E936643265366F102033683AA032E33429
:10022800EE376210F2300D175305EC32E332203A04
:100238004311EE376933F5336539431061346E374E
:10024800EC32A2392016EE32E2306536441020181E
:1002580020133122A01DE5396536F4312210B61875
:100268004D107A24201120133511301847107310BF
:10027800ED306C38F3322E118A06682AF334721086
:10028800F332EC3A733A69102037363F2018A03918
:10029800E6376110F131E93AE939693AEE37741015
:1002A800ED34A032EE302032313F47102021E637BE
:1002B8005210CD206310EE37F539F036693AEE3733
:1002C80020176F2A7310F6308D325205CD20201674
:1002D8006F36E53B2039683AA032A011E637731033
:1002E800ED306C38F3320D170A05EF2665396910C1
:1002F8006637A037EE302032F239A031E1312037AD
:1003080065316610F53764376110203AE933683A89
:10031800E23A6317ED37C417C8215624C817562484
:10032800D32FC121C42FED328D3709058904D02D73
:100338006539F33965107437F2327410A037EF312C
:100348007437EE34E53A802EF429E730A0323A18B3
:100358008A06682AF3347310613AE5336910A039C4
:10036800653B79396E10E930653B61106437691077
:10037800A0396537653B2039F33AE43269102037F4
:100388007238E330693AE5312017F3207310EF37FC
:100398002037F33061106410E734F43469108D3974
:1003A80069057037F43A2810F233E53220374526CC
:1003B80020226C33F3306534A9392016F4346910DF
:1003C800A039E831E332E5352E3249102033683A56
:1003D800A0326932E933203AF33469106337F237CF
:1003E8006539F4312016683A8D3263056534EB318E
:1003F8007710EC3420366133EC3420166C33F3304C
:10040800203465392C32611064377210F432F23AB4
:1004180020376F3A7710E930693A67376610F23754
:10042800741065346610F234F4396410E734F43427
:100438000A170D0565296538F43075107437EC34E2
:10044800741065346610F234F4397610EC30E53AFD
:100458006910A0396F33EE3A2E325210F032E13281
:10046800203A6F332039EC302036201A6932E933CC
:10047800733A0D170005F429E730A032BA188A0636
:10048800682AF3347310613AE5336910A039A03053
:100498006F38F2375010CE2463106534EB312017D3
:1004A800E620653A2039EC302036201A6932E933E3
:1004B800733A6110653969107037F43A2016683A52
:1004C800F9326110653963106534EB31E4328A061C
:1004D800E539F538EE32693AEC3079362017EE20F6
:1004E80069106337F2376539F4316410E734F4344E
:1004F8006610E93073367410653463106534EB3177
:1005080069107337613A743779362017682AA03230
:10051800693AE5366210F432E53BEE328A06683A0B
:10052800A032F233E532203745262022753A6E395B
:10053800EE34A033E6372033EE302032683AA0326A
:1005480065392032452620226C33F3306934673709
:100558007610F230E534A03965382039683AA0328F
:10056800A011E6378A06E539F538EE32693AEC30FB
:100578006310F2376539F4316410E734F434AE3976
:100588008A065005EC3AE539693BF7326910A0391B
:100598006F37A03B6F3A6210A032F33AE43220176B
:1005A8007228F332A0395211EE3A2C1165107437C3
:1005B800F2325010CE2420167238F332A03953117B
:1005C8006F3A22380D1750056539F3392210E8299A
:1005D800F7374310F23AEF39733920116F3A651043
:1005E80061376C31A032693AE93667376D10F230FD
:1005F800E53573392016E536F330F23AA032683A19
:10060800A032693AE5366210F432E53BEE328A06EA
:10061800683AA0326136F4397210F334EE34A033FC
:10062800E432E5336F10203331222610741065341C
:100638006610F234F4396610EC30693667376510A5
:100648006732A032E63744103B186E10F437A032F8
:10065800683AF3347410ED34AE328A066F2DED37F4
:10066800691020376F3A74106934A039F230E132DA
:100678007410A037E330F5316139653A7936731073
:10068800F432741065346D10F230E5357339201684
:10069800EE302032E539A032683AA032693AE536C0
:1006A8006410EC32613A0D175205F032E132203A0B
:1006B8006F332039E132E83175106937F538A032E7
:1006C800613B7536A032E637741065346610F23433
:1006D800F4396410E734F4342017EE27A032E637F3
:1006E800741065347410ED34F3328A066F37653A46
:1006F8002032E93B6C366210A0326F366737F2322F
:10070800741061342037683AA032F437653473398D
:100718002017682AF3346910A039683AA032EF31FB
:100728007239E332203A613B7536A032E6377410ED
:1007380065346610F234F4398A066932E9332E3AA0
:100748005210F032E132203A683AF3346610F23748
:100758006510E33020346932E933203A6F38AE3916
:100768008D0654056934A039753B6E3620176539F6
:100778007532E531A039683AA032E535F33C613885
:10078800E53166106F39A036341434153415341534
:10079800BD143519201B6F3A28102B1A2B1A2B1A47
:1007A800291AB11E2E1B8A0669247437201D682A4F
:1007B800A032693AE5366410EC32613A7710EC34CD
:1007C8002036E535F032691063376539F330EE3499
:1007D800A033E93B683A6D10F237A032EF31723935
:1007E800E332203A6932E933733A0D170005F429E8
:1007F800E730A0323A198A06682AF3346910A0391A
:10080800A0306137F634A032F430653AF036203A39
:10081800F43070106539653B7437EE34A033A0307E
:10082800693AE5365310C1212017E620653A203988
:10083800EC3020366932E933733A61106539691052
:100848007037F43A0D1674056534A03CF230A032C6
:10085800E831E332E5352E3249106337F23765392E
:10086800F4316410E734F434A039F230A0326F3731
:10087800653A2C326210F43A6410E537A0396F37C4
:10088800203A6133EC3469107337613A743779363A
:100898000D1754056934A0396539F5397436A0390E
:1008A800EE3461106410E6346533653974376210CC
:1008B800E832F630EF342C396210F43A69106637B2
:1008C800A037F3347310693A6C366C10E132E535B1
:1008D8002032693BA030693AE5360D174805EE34F9
:1008E8003A3A54106934A0394928A021F3347210D7
:1008F800EE3A693767376110203AA018C826003DDC
:10090800F429E730A032BA198A06682AF33473103A
:10091800613AE5337510E539A039A0307238F037FF
:10092800F23279366210EC30EE30E5312032492867
:100938002027E831E332AE35571065342037EF31E0
:10094800F036F230EE34A033E132E8316410E734A7
:10095800F4342016683A8D327305ED30A0327537BD
:10096800E236F2326F102033EE34F4397539F4314F
:10097800EF3473376F10E331F23A6610F2376210D2
:10098800F4372034EF317239E332203AEE30203236
:10099800EE34EF317239E332203A613B7536F33287
:1009A8002017F42469108D396E05F4377010F33769
:1009B800E9396C31A0326F3A6410F232F634A03261
:1009C800683AA03249282027F33AEE34A033A03001
:1009D800693AE5365310C1210A178D06F4246910C7
:1009E800A039F439EC3420366F38F339E2346536FF
:1009F8007410A03765326939653B7410653450103E
:100A0800CE246610F23774106934A039F439E7300F
:100A1800AE3249102033EF3CA03AE131203765323D
:100A2800EF367337723AF4308D3275056437F23227
:100A3800F439EE30693267376F1020336F34A03BDA
:100A48006F3A6410A037683AF3347710F4346F348F
:100A5800F43A62107539653A6610F237E5312016B6
:100A6800E53B6D10F9306810F630A032A030F0394F
:100A7800E332E13420367238FA348D326605F237C3
:100A88007910F5378010EF2167376139753A61368B
:100A9800693AEE37A1395910F5376710F4377410F1
:100AA8007234F537E83361106C367310613AE53308
:100AB800A039E63774106934A039E831EC3065366E
:100AC8006737A1328A06E6247910F5376C10F637B5
:100AD800A032E136E93567377010FA3A6C3DF332E7
:100AE80020166C38E132E5396310EE37E9396532A2
:100AF80020396F3B75367437E532693967377910B5
:100B0800F5372039693AE53669102037683AA03256
:100B18004824212B00002000B401B501B927D727AC
:100B28008127E427A8302000A0008130A1003F30B1
:100B3800A2008230A300FB30A4008330A5008430DB
:100B4800A6008430A7004730A8008530A9002300FC
:100B58001D168B170B1721009116FA12FA110C307B
:100B6800EE2740302000B8008030B900ED26FA1D8D
:100B7800BB2DFA1120001508BF003F08B300330849
:100B8800031DCA2D0130BF003F08B3073308BF005B
:100B98003F08C3005330EE276530EE276530EE2757
:100BA8006430EE273A30EE272030EE272000C201CD
:100BB8004335BF003F08C300003003180130303E02
:100BC800EE2701302000BF003F08C207083042026C
:100BD800031CDC2D0030A9277A1FF02D7A13A126DB
:100BE800003A03190B2E01302000BF003F08B5075B
:100BF8003408031D0B2E0430350203180B2E45262E
:100C0800003A031D0B2E053069272000B50104307A
:100C180020003506031DF02D2100111391124526E1
:100C2800003A0319302E0430C82703302000C000D2
:100C38008A30BF005530890B1F2EBF0B1F2EC00BEB
:100C48001F2E00320430C82701302000BF003F08A3
:100C5800B4073408A927322E05306927013020004F
:100C6800B50203193D2E3508703E860087018101C3
:100C7800322E911221009116200011132100111714
:100C8800F02D2000B801B80A902E3508733E860072
:100C9800870135086F3E84008501000801060319A5
:100CA8009E2E2000B8019E2EB9013508390203187E
:100CB8009E2E3908743E860087013908703E8400EC
:100CC80085010008010603196B2E00300800013069
:100CD800FC007C08B907592EB801B80AB9013508D3
:100CE800390203189E2E3908743E86008701390898
:100CF800703E84008501000801060319852EB8019D
:100D080000000130FC007C082000B907732E8731F1
:100D180050278631003A532E3408003A0319492ED9
:100D2800013A0319582E033A0319702E013A031990
:100D38008B2E9E2E2000380808002000BB01BC0125
:100D480040303602031CAA2EBC01BC0A953036027C
:100D5800031CB22E0230BA003A08BC00B430360286
:100D6800031CBA2E0330BA003A08BC00E53036023C
:100D7800031CC22EFF30BA003A08BC00FA1CD02E61
:100D88003508703E8600870101083C06031DD02EF9
:100D9800FA107A140430C8277A18DF2E20003C0A8B
:100DA8000319DF2E3C08BA003508703E860087011B
:100DB8003A088100FA147A1CEA2E20003C0A031D26
:100DC800EA2E7A10BB01BB0A0430C82720003B0872
:100DD8000800BF302000BA003A082300950520001B
:100DE80039082300920020003808230091002300CE
:100DF80015141510151014082000BB002300130843
:100E08002000BA000730BB36BA0C890B072F3A0806
:100E18007F39BC003C08BD003D08EE2723001308BD
:100E28007F392000BA003A08BD003D08EE2701309E
:100E3800230091070030923D20003D080319080067
:100E4800FB2E20003336FC007C08B300031C302F37
:100E5800B830FC007C08B3063308FC007C08B800F6
:100E68000330FC007C08B90038080339FC00390855
:100E7800743E860087017C0881000310B80C0310BB
:100E8800B80C0130B9023908031D382F3808033966
:100E9800FC007C08F4000800F9010330F800703009
:100EA8007807840085017430780786008701000878
:100EB8000106031D602F612FF90A00017806031946
:100EC800672FF803532F790808002000BD000A3067
:100ED800BC003C08BE003D08982711302000BC002B
:100EE8003A30890B752FBC0B752F0000013020009C
:100EF800BE023E08031908006F2F21001D08833920
:100F080008389D00FC309E051E088F3940389E0029
:100F18009E131D1420001113210011171F080F39EB
:100F280030389F007A1308002000BB003B08C82710
:100F380011302000BA003A30890BA02FBA0BA02F2D
:100F4800000020003B08C82708002000BE000C3025
:100F5800EE2720003E35203E86008701403FB8003E
:100F6800413FB900ED26252708005A302100990095
:100F7800043023008C0021000C1520000C168C1660
:100F880021000C128C120800FC0001302000B8006F
:100F98007C0ACF2FB835890BCE2F3808B90039080D
:100FA80022008C06080021008C140C1023009C01E0
:100FB80019309B009F159E161E121E159D170800BE
:100FC80020009501210095111508F839023895007F
:100FD80095120800FC002000111EEF2F7C0823004A
:100FE8009A000800640080010131890BF72F003452
:020000040001F9
:04000E00E4FFFFDF2D
:00000001FF
