:020000040000FA
:020000003528A1
:100008007E1480312000911E24282100911E24286E
:1000180023009D1C18281D121908FB007B082000CE
:10002800B70023001D1624281908FB007B082000B0
:10003800B7000D303706031D2328FA152428FA16B1
:100048002000111F33282100111F3328200011130D
:1000580021001C08FB007B082000B6007A177E10E0
:1000680009003628FA012030840000308500183055
:10007800F8277E102000882D682AF3346910A039EB
:10008800683AA0324824202B692AE936673753108A
:10009800E434A032E821EE3065372036F420613AA6
:1000A800EB312810C329A9206410ED32AE378A0637
:1000B800A020693AE5365310C1216910A039653886
:1000C8006639F237E536203279316D10E132F5398B
:1000D80069396737741065347410ED34A0326531AE
:1000E800773AE5322037F632EE32733A74106134DB
:1000F800203AF2308D327305F032F230F430E432C7
:100108006210A03CA030EF31F036F230F334EE3715
:100118007410EB30EE34A033A0306F372D37653DC7
:100128006F396110EF36EE3A203AE6377410ED3445
:10013800AE3249102037683AF3346310F330AC32EA
:100148008A06F4346910A039A030201A6932E933DC
:10015800203A49282027E63734107610EC30E53A63
:10016800AE3954106934A039F132E13A653AA03910
:100178006F3A28105E1A291AB21EB61A6310ED37A4
:1001880069316137693AEE37AE390A05D406A037C6
:10019800E539203AF03A201DEF316E37E332203A44
:1001A800683AA032D32A6521A0326F36E933A031EC
:1001B800EE30EC30FA3CF2327410A037A030EF3158
:1001C800F036F43AF2322016F439F230203A683A2E
:1001D800A0327238E73761398D36220575387336A3
:1001E800F632E534A23B201775287336F632E5342B
:1001F800A03BE839F537643673106F34A03B5511CE
:10020800C229E5324110222C69102037683AA03201
:10021800E936643265366F102033683AA032E33429
:10022800EE376210F2300D175305EC32E332203A04
:100238004311EE376933F5336539431061346E374E
:10024800EC32A2392016EE32E2306536441020181E
:1002580020133122A01DE5396536F4312210B21879
:100268004D107A2420112013311147107310ED30EE
:100278006C38F3322E118A06682AF3347210F3327E
:10028800EC3A733A69102037363F2018A039E63720
:100298006110F131E93AE939693AEE377410ED3411
:1002A800A032EE302032313F47102021E63752107D
:1002B800CD206310EE37F539F036693AEE3720175E
:1002C8006F2A7310F6308D325205CD2020166F3606
:1002D800E53B2039683AA032A011E6377310ED30BB
:1002E8006C38F3320D170A05EF2665396910663741
:1002F800A037EE302032F239A031E13120376531B4
:100308006610F53764376110203AE933683AE23A03
:100318006317ED37C417C8215624C8175624D32F9E
:10032800C121C42FED328D3709058904D02D6539D7
:10033800F33965107437F2327410A037EF3174371F
:10034800EE34E53A802EF429E730A0323A188A06CE
:10035800682AF3347310613AE533F3136C10E73706
:10036800E3347710EC3420366537653B2039653146
:100378007510E5392032EE3470106139F431E33408
:10038800AE324110A039EF39EE376110A039A030F4
:100398006932E933203AF3348A06EE347538203A64
:1003A80067146539EE324C10C42266106136E8399C
:1003B800F332AC146910203AF33463106534EB312E
:1003C800E4322017E624741065346410E734F434FA
:1003D8006910A039EE34EF317239E3322C3A7410D7
:1003E80065348A06E831E332A035E93B6C3666109D
:1003F800E9302C3666106136E8397210E43220167E
:10040800EE3020326539753A6E397410A037E13B09
:10041800F434EE34A0336F332039683AA0326933AC
:100428007339203A6932E9332E3A0A05D206F03296
:10043800E132203AEE3A693A2036683AA032693316
:100448007339203A613B7536A032F3346610F537BC
:100458006437201765296538F4306610F237611063
:100468006C3634106410E734F434AE398A06000070
:10047800F429E730A032BA188A06682AF3347310D0
:10048800613AE5336910A039A0306F38F23750105F
:10049800CE2463106534EB312017E620653A203905
:1004A800EC302036201A6932E933733A6110653925
:1004B80069107037F43A2016683AF93261106539D4
:1004C80063106534EB31E4328A06E539F538EE32EB
:1004D800693AEC3079362017EE2069106337F23725
:1004E8006539F4316410E734F4346610E930733652
:1004F8007410653463106534EB3169107337613AF1
:10050800743779362017682AA032693AE5366210BE
:10051800F432E53BEE328A06683AA032F233E5322D
:10052800203745262022753A6E39EE34A033E63757
:100538002033EE302032683AA03265392032452621
:1005480020226C33F330693467377610F230E534A3
:10055800A03965382039683AA032A011E6378A06F2
:10056800E539F538EE32693AEC306310F23765391F
:10057800F4316410E734F434AE398A065005EC3AA5
:10058800E539693BF7326910A0396F37A03B6F3AFC
:100598006210A032F33AE43220177228F332A039FD
:1005A8005211EE3A2C1165107437F2325010CE24E5
:1005B80020167238F332A03953116F3A22380D17CA
:1005C80050056539F3392210E829F7374310F23A14
:1005D800EF39733920116F3A651061376C31A032E9
:1005E800693AE93667376D10F230E5357339201608
:1005F800E536F330F23AA032683AA032693AE53685
:100608006210F432E53BEE328A06683AA03261366F
:10061800F4397210F334EE34A033E432E5336F105A
:10062800203331222610741065346610F234F43900
:100638006610EC306936673765106732A032E637E6
:1006480044103B186E10F437A032683AF334741033
:10065800ED34AE328A066F2DED37691020376F3AC8
:1006680074106934A039F230E1327410A037E330E5
:10067800F5316139653A79367310F432741065349E
:100688006D10F230E5357339611064377310E53257
:10069800741065347410ED34A03265327436AE309F
:1006A8008A0665296538F4306610F2376510E3303C
:1006B8002034EE3AF134E53A7610EC30E53A6F1032
:1006C8002033683AA03269337339203A6932E93302
:1006D8002E3A4F1065376F102033683AA032693AC6
:1006E800E5368D396E05F437E4327710EC34203670
:1006F80065316C10EE37E5332039683AEE30741006
:1007080065346F10683AF232AE3954106934A03942
:10071800F334741065346310F2376539F4317610A8
:10072800EC30E53A6F102033683AA03269337339F8
:100738000D3A6405E734F434201765296538F43038
:1007480074106934A0396F332039E132E83164100C
:10075800E734F4347010F3370D178A06682AF33437
:100768007610EC3A2E377210E432E33AF332741012
:1007780065346B10F932F039E330A0327233ED375B
:1007880028102A1A2A1A2A1A291AB21EB61A7410F6
:10079800A0373414B415B415B415BD14B6180D1714
:1007A8004805EE343A3A541065347410ED34A032EA
:1007B80065327436A030E93B6C366B10E532203870
:1007C800EE34F231E132E93967377710F434203406
:1007D800EF3665396310F2376539F4316410E73460
:1007E800F434AE398A060000F429E730A0323A1909
:1007F8008A06682AF3346910A039A0306137F634C4
:10080800A032F430653AF036203AF4307010653989
:10081800653B7437EE34A033A030693AE53653109F
:10082800C1212017E620653A2039EC30203669329C
:10083800E933733A6110653969107037F43A0D1667
:1008480074056534A03CF230A032E831E332E53576
:100858002E3249106337F2376539F4316410E734C2
:10086800F434A039F230A0326F37653A2C32621076
:10087800F43A6410E537A0396F37203A6133EC3425
:1008880069107337613A743779360D17540569342E
:10089800A0396539F5397436A039EE346110641021
:1008A800E6346533653974376210E832F630EF3470
:1008B8002C396210F43A69106637A037F334731094
:1008C800693A6C366C10E132E5352032693BA0306C
:1008D800693AE5360D174805EE343A3A541069344A
:1008E800A0394928A021F3347210EE3A69376737E6
:1008F8006110203AA018C826003DF429E730A0323C
:10090800BA198A06682AF3347310613AE533751008
:10091800E539A039A0307238F037F23279366210F2
:10092800EC30EE30E531203249282027E831E33237
:10093800AE35571065342037EF31F036F230EE34EB
:10094800A033E132E8316410E734F4342016683A11
:100958008D327305ED30A0327537E236F2326F1002
:100968002033EE34F4397539F431EF3473376F10BE
:10097800E331F23A6610F2376210F4372034EF317F
:100988007239E332203AEE302032EE34EF317239E8
:10099800E332203A613B7536F3322017F4246910AC
:1009A8008D396E05F4377010F337E9396C31A032A0
:1009B8006F3A6410F232F634A032683AA03249280D
:1009C8002027F33AEE34A033A030693AE5365310C5
:1009D800C1210A178D06F4246910A039F439EC34C2
:1009E80020366F38F339E23465367410A037653233
:1009F8006939653B741065345010CE246610F2379F
:100A080074106934A039F439E730AE324910203314
:100A1800EF3CA03AE13120376532EF367337723A4E
:100A2800F4308D3275056437F232F439EE306932BC
:100A380067376F1020336F34A03B6F3A6410A037CC
:100A4800683AF3347710F4346F34F43A6210753935
:100A5800653A6610F237E5312016E53B6D10F9303E
:100A68006810F630A032A0307238FA348D3266053C
:100A7800F2377910F5378010EF2167376139753A09
:100A88006136693AEE37A1395910F5376710F437EE
:100A980074107234F537E83361106C367310613AAC
:100AA800E533A039E63774106934A039E831EC3001
:100AB80065366737A1328A06E6247910F5376C1057
:100AC800F637A032E136E93567377010FA3A6C3DEF
:100AD800F33220166C38E132E5396310EE37E93924
:100AE800653220396F3B75367437E53269396737B7
:100AF8007910F5372039693AE53669102037683AB0
:100B0800A0324824212B00002000B401B501BB27E6
:100B1800D9277527E627A7302000A0008130A1003B
:100B28003C30A2008230A300F830A4008330A50036
:100B38008130A6008430A7004030A8008530A90085
:100B480023001D168B170B1721009116FA12FA11A4
:100B5800AC2740302000B8008030B900E326FA1DE9
:100B6800B32DFA1120001508BF003F08B300330861
:100B7800031DC22D0130BF003F08B3073308BF0073
:100B88003F08C3005330F0276530F0276530F02761
:100B98006430F0273A30F0272030F0272000C201D7
:100BA8004335BF003F08C300003003180130303E12
:100BB800F02701302000BF003F08C207083042027A
:100BC800031CD42D00309D277A1FE82D7A13972611
:100BD800003A0319032E01302000BF003F08B50773
:100BE8003408031D032E043035020318032E3D2656
:100BF800003A031D032E053046272000B5010430B6
:100C080020003506031DE82D2100111391123D2601
:100C1800003A0319282E0430CA2703302000C000E8
:100C28008A30BF005530890B172EBF0B172EC00B0B
:100C3800172E00320430CA2701302000BF003F08B9
:100C4800B40734089D272A2E053046270130200096
:100C5800B5020319352E3508703E860087018101DB
:100C68002A2E91122100911620001113210011172C
:100C7800E82D2000B801B80A862E3508733E860094
:100C8800870135086F3E84008501000801060319B5
:100C9800942E2000B801942EB901350839020318A2
:100CA800942E3908743E860087013908703E840006
:100CB8008501000801060319632E00300800013081
:100CC800FC007C08B907512EB90135083902031810
:100CD800942E3908743E860087013908703E8400D6
:100CE80085010008010603197B2EB80100000130B8
:100CF800FC007C082000B907692E87315E27863101
:100D0800003A4B2E3408003A0319412E013A0319D0
:100D1800502E033A0319682E013A0319812E942E96
:100D28002000380808002000BB01BC014030360212
:100D3800031CA02EBC01BC0A95303602031CA82E49
:100D48000230BA003A08BC00B4303602031CB02E98
:100D58000330BA003A08BC00E5303602031CB82E4E
:100D6800FF30BA003A08BC00FA1CC62E3508703E9F
:100D78008600870101083C06031DC62EFA107A1466
:100D88000430CA277A18D52E20003C0A0319D52E1C
:100D98003C08BA003508703E860087013A08810091
:100DA800FA147A1CE02E20003C0A031DE02E7A106B
:100DB800BB01BB0A0430CA2720003B080800BF302B
:100DC8002000BA003A0823009505200039082300BE
:100DD80092002000380823009100230015141510F4
:100DE800151014082000BB00230013082000BA00C7
:100DF8000730BB36BA0C890BFD2E3A087F39BC0088
:100E08003C08BD003D08F027230013087F39200067
:100E1800BA003A08BD003D08F027013023009107C9
:100E28000030923D20003D0803190800F12E2000F3
:100E38003336FC007C08B300031C262FB830FC00B6
:100E48007C08B3063308FC007C08B8000330FC00BB
:100E58007C08B90038080339FC003908743E86005C
:100E680087017C0881000310B80C0310B80C01300E
:100E7800B9023908031D2E2F38080339FC007C08F5
:100E8800F40008002000BD000A30BC003C08BE0089
:100E98003D088C2711302000BC003A30890B522FB6
:100EA800BC0B522F000001302000BE023E0803197F
:100EB80008004C2FF9010330F800703078078400DF
:100EC8008501743078078600870100080106031D34
:100ED800F90A000178060319732FF803612F7908BE
:100EE800080021001D08833908389D00FC309E0544
:100EF8001E088F3940389E009E131D1420001113C0
:100F0800210011171F080F3930389F007A13080085
:100F18002000BB003B08CA2711302000BA003A3035
:100F2800890B942FBA0B942F000020003B08CA2786
:100F380008002000BE00AC2720003E35203E860079
:100F48008701403FB800413FB900E3261B2708004E
:100F58001B30F0275B30F0273230F0274A30F0277B
:100F68001B30F0275B30F0274830F02708005A3054
:100F780021009900043023008C0021000C1520006A
:100F88000C168C1621000C128C120800FC00013083
:100F98002000B8007C0AD12FB835890BD02F38082B
:100FA800B900390822008C06080021008C140C10A6
:100FB80023009C0119309B009F159E161E121E15BA
:100FC8009D17080020009501210095111508F83992
:100FD8000238950095120800FC002000111EF12F20
:100FE8007C0823009A000800640080010131890B05
:040FF800F92F003499
:020000040001F9
:04000E00E4FFFFDF2D
:00000001FF
